:100000000C9463000C948B000C948B000C948B006C
:100010000C948B000C948B000C948B000C948B0034
:100020000C948B000C948B000C948B000C948B0024
:100030000C948B000C948B000C948B000C948B0014
:100040000C94100B0C948B000C94FF0B0C948B00F5
:100050000C948B000C948B000C948B000C948B00F4
:100060000C948B000C948B000000000024002700EF
:100070002A0000000000250028002B0000000000DE
:1000800023002600290004040404040404040202DA
:100090000202020203030303030301020408102007
:1000A0004080010204081020010204081020000012
:1000B0000007000201000003040600000000000029
:1000C00000002D03840D11241FBECFEFD8E0DEBF4A
:1000D000CDBF12E0A0E0B1E0EEE1FFE102C005908B
:1000E0000D92AE32B107D9F715E0AEE2B2E001C031
:1000F0001D92AA30B107E1F710E0C6ECD0E004C0D1
:100100002297FE010E947C0FC23CD107C9F70E94D2
:10011000090B0C948D0F0C940000DF92EF92FF926C
:100120000F931F937A018B01D22E782F705CA0E081
:10013000B0E8E0E0F0E0472F50E061E029E08A2FEE
:1001400090E036E0969587953A95E1F7382F317033
:100150008B2F90E084239523892B09F03627AA0F53
:100160003111A227B6953196E830F10541F7AF7706
:10017000B0E8E0E0F0E0412F50E061E029E08A2FB4
:1001800090E036E0969587953A95E1F7382F3170F3
:100190008B2F90E084239523892B09F03627AA0F13
:1001A0003111A227B6953196E830F10541F7AF77C6
:1001B000B0E8E0E0F0E0402F50E061E029E08A2F75
:1001C00090E036E0969587953A95E1F7382F3170B3
:1001D0008B2F90E084239523892B09F03627AA0FD3
:1001E0003111A227B6953196E830F10541F7AF7786
:1001F000B0E8E0E0F0E04F2D50E061E029E08A2F28
:1002000090E036E0969587953A95E1F7382F317072
:100210008B2F90E084239523892B09F03627AA0F92
:100220003111A227B6953196E830F10541F7AF7745
:10023000B0E8E0E0F0E04E2D50E061E029E08A2FE8
:1002400090E036E0969587953A95E1F7382F317032
:100250008B2F90E084239523892B09F03627AA0F52
:100260003111A227B6953196E830F10541F78A2F72
:10027000880F8160A0E0BFEF9FEF2A987EBD0DB48C
:1002800007FEFDCF2EB51EBD0DB407FEFDCF2EB56A
:100290000EBD0DB407FEFDCF2EB5FEBC0DB407FE9E
:1002A000FDCF2EB5EEBC0DB407FEFDCF2EB58EBD35
:1002B0000DB407FEFDCF2EB5E0E0F0E09EBD0DB41D
:1002C00007FEFDCF3EB537FF05C0319620E1E03097
:1002D000F207A1F7DD2081F033FF16C02A9ABEBDD8
:1002E0000DB407FEFDCF2EB5AF5FA53031F604C0CB
:1002F0000DB407FEFDCF8EB5832F90E01F910F91B7
:10030000FF90EF90DF9008952A9A8FEF8EBDF0CF87
:10031000CF93DF9383E090E090932F0280932E029F
:1003200085B1846385B984B18C6284B9249883E5EE
:100330008CBD8DB58EB52A9A80E09FEF9EBD0DB421
:1003400007FEFDCF2EB58F5F8A30C1F780E040E019
:1003500050E060E070E021E00E948D00813009F003
:100360005EC0CFEFDFEF8AE340E050E060E070E096
:1003700020E00E948D00823008F455C021978FEF55
:10038000CF3FD80709F44FC0EECF20E030E040E087
:1003900050E01EBC0DB407FEFDCF8EB5582F4EBDEC
:1003A0000DB407FEFDCF8EB5482F3EBD0DB407FE40
:1003B000FDCF8EB5382F2EBD0DB407FEFDCF8EB507
:1003C000282F42FD08C02A9A8FEF8EBD0DB407FE7C
:1003D000FDCF8EB524C0CFEFDFEF81E040E050E0ED
:1003E00060E070E421E00E948D002197882319F0DD
:1003F000209799F714C0CD2B91F080E140E052E0B6
:1004000060E070E021E00E948D00882341F482E0EA
:1004100090E090932F0280932E0280E001C083E051
:10042000DF91CF910895CD2BB1F2AFCFBF92CF9294
:10043000DF92EF92FF920F931F93CF93DF93EC0124
:100440007A018B01B22EDD24CC24CA9450C0B801AD
:10045000A701E9E0440F551F661F771FEA95D1F702
:1004600081E120E00E948D00882389F42FEF3FE096
:10047000CEBC0DB407FEFDCF8EB58E3F31F02115F9
:10048000310529F021503040F3CF232B49F42A9A2B
:1004900083E090E090932F0280932E0281E02BC0A6
:1004A000FE0120E030E0CEBC0DB407FEFDCF8EB5DE
:1004B00081932F5F3F4F82E020303807A1F7C05073
:1004C000DE4FCEBC0DB407FEFDCF8EB5CEBC0DB455
:1004D00007FEFDCF8EB52A9ACEBC0DB407FEFDCF28
:1004E0008EB5D3940894E11CF11C011D111DDB1481
:1004F00008F4ADCF80E0DF91CF911F910F91FF9075
:10050000EF90DF90CF90BF9008953F924F925F920F
:100510006F927F928F929F92AF92BF92CF92DF9213
:10052000EF92FF920F931F93CF93DF93EC017A0129
:100530008B01422E88248EEF382E55245A9468C0A1
:1005400088E1B601A50120E00E948D00882309F012
:1005500043C03EBC0DB407FEFDCF8EB5FE0120E0CA
:1005600030E081918EBD0DB407FEFDCF8EB52F5FBB
:100570003F4F82E020303807A1F71EBC0DB407FEC4
:10058000FDCF8EB51EBC0DB407FEFDCF8EB55EBC93
:100590000DB407FEFDCF9EB5892F8F70853059F0C1
:1005A0002A9A5EBC0DB407FEFDCF8EB5939485E00C
:1005B000981631F614C02FEF3FEF5EBC0DB407FE66
:1005C000FDCF8EB5882331F42115310529F0215056
:1005D0003040F3CF232B11F42A9A11C0E3012A9A59
:1005E0005EBC0DB407FEFDCF8EB50894E11CF11C76
:1005F000011D111D84E0891550F493FD06C083E0B0
:1006000090E090932F0280932E0281E014C0839497
:10061000841480F457016801B9E0AA0CBB1CCC1CFF
:10062000DD1CBA95D1F79924612CA2E07A2E6C0ECC
:100630007D1E86CF80E0DF91CF911F910F91FF90BB
:10064000EF90DF90CF90BF90AF909F908F907F9072
:100650006F905F904F903F90089508952F923F9232
:100660004F925F926F927F928F929F92AF92BF92C2
:10067000CF92DF92EF92FF920F931F938B010E9414
:10068000880180E392E00E943909882309F49EC022
:10069000C80165E574E049E554E00E94CB09882370
:1006A00009F494C08091590490915A04A0915B047C
:1006B000B0915C04813022E0920720E0A20720E0A4
:1006C000B207D8F029E0B695A795979587952A9512
:1006D000D1F78093510490935204A0935304B093A4
:1006E000540480E092E0A0E0B0E08093590490933D
:1006F0005A04A0935B04B0935C04EE24FF248701AA
:10070000AA24BB246501212C82E0382E412C512CD7
:100710004EC0409155045091560460915704709119
:1007200058044A0D5B1D6C1D7D1D80E392E021E0A5
:100730000E941602882309F049C0809159049091C3
:100740005A04A0915B04B0915C0481509240A04097
:10075000B04040F02092590430925A0440925B0419
:1007600050925C046090590470905A0480905B042D
:1007700090905C04E0E3F2E020E030E040E050E004
:100780000CC081912F5F3F4F4F4F5F4F833009F176
:100790000894E11CF11C011D111D261537054805A3
:1007A000590578F30894A11CB11CC11CD11C80917F
:1007B000510490915204A0915304B09154048A15AD
:1007C0009B05AC05BD0508F0A4CF03C0EE24FF24B3
:1007D0008701B701C8011F910F91FF90EF90DF9043
:1007E000CF90BF90AF909F908F907F906F905F90D1
:1007F0004F903F902F9008950F931F93CF93DF93C7
:10080000EB018A0180912102882309F460C087EFFF
:1008100094E060E071E00E94F50D87EF94E0B8018C
:100820000E94F50D87EF94E062E071E00E94F50D03
:10083000C430D10591F1C530D1057CF4C130D1056A
:10084000E9F0C230D1051CF4CD2B99F040C0C23084
:10085000D105C9F02397D9F51BC0C630D10539F1B0
:10086000C630D105FCF0C730D10531F1289779F5B4
:1008700028C087EF94E067E071E027C087EF94E03D
:1008800061E171E022C087EF94E06DE171E01DC08D
:1008900087EF94E06AE271E018C087EF94E065E3C7
:1008A00071E013C087EF94E06AE471E00EC087EF57
:1008B00094E063E571E009C087EF94E06BE571E0D7
:1008C00004C087EF94E065E671E00E94140EDF91AA
:1008D000CF911F910F9108954F925F926F927F92E7
:1008E0008F929F92AF92BF92CF92DF92EF92FF9240
:1008F0000F931F93CF93DF938C017B012A0163E059
:1009000070E0A7010E94FC03C801B7010E942E03FA
:100910007B018C0120E032E040E050E00E944B0F70
:10092000CA01A901BC014093510450935204609341
:100930005304709354048091550490915604A091EF
:100940005704B0915804480F591F6A1F7B1F80E35A
:1009500092E021E00E941602882309F0F4C0809101
:10096000590490915A04A0915B04B0915C048150A9
:100970009240A040B04060F080E092E0A0E0B0E0A3
:100980008093590490935A04A0935B04B0935C0441
:10099000C801B70120E032E040E050E00E944B0F78
:1009A0009B013B01A0905904B0905A04C0905B0495
:1009B000D0905C047B010027F7FC0095102F40E3EA
:1009C000842E42E0942E860E971E80E090E0A0E0F8
:1009D000B0E01AC0E40DF51D60810894E11CF11C23
:1009E000011D111D0196A11DB11D662351F4CE01FB
:1009F000AA2797FDA095BA2FFE01E05DFD4F23E0E9
:100A000011C0F40161934F01FC01EC01C20FD31F2F
:100A1000EA14FB040C051D05E8F2E9CF21930196C9
:100A2000A11DB11D8A159B05AC05BD05B8F300E0FD
:100A300010E0409151045091520460915304709120
:100A400054048091550490915604A0915704B0919C
:100A50005804480F591F6A1F7B1F80E392E021E072
:100A60000E948502882309F06EC00F5F1F4F0A3075
:100A70001105F9F6FE01E619F709E40DF51D80816F
:100A8000882309F463C0E0905904F0905A0400915F
:100A90005B0410915C04A0E3B2E020E030E040E0B1
:100AA00050E008C081912F5F3F4F4F4F5F4F882329
:100AB00041F08D93B9012E153F054007510790F382
:100AC00045C0FB01E05DFD4F83E08083CB010196D3
:100AD0009C01442737FD4095542FFC01E05DFD4FFC
:100AE00080E205C081932F5F3F4F4F4F5F4F2E1520
:100AF0003F0540075107B0F300E010E04091550476
:100B0000509156046091570470915804809151049B
:100B100090915204A0915304B0915404480F591F6E
:100B20006A1F7B1F4F5F5F4F6F4F7F4F80E392E0E5
:100B300021E00E948502882331F40F5F1F4F0A30A5
:100B40001105E1F603C021E030E002C020E030E012
:100B5000C901DF91CF911F910F91FF90EF90DF902E
:100B6000CF90BF90AF909F908F907F906F905F904D
:100B70004F900895CF92DF92EF92FF920F931F93C1
:100B80007C016B010E946C048C01C701B60141E736
:100B900051E00E946C049C01202B312BC9011F9154
:100BA0000F91FF90EF90DF90CF9008950F931F93D8
:100BB000CF93DF938C01AB0165E070E00E94FC03F2
:100BC000C0E3D4E087EF94E00E94350D8823D1F391
:100BD00087EF94E00E94490DAC019093230280932B
:100BE0002202662757FD6095762F87EF94E020E07C
:100BF00030E00E94E20E80912202909123028E3218
:100C0000910529F0899384E0C035D807D9F687EF9C
:100C100094E00E94FD0DC80163E771E040E354E0F9
:100C20000E946C04DF91CF911F910F910895CF9294
:100C3000DF92EF92FF920F931F93CF93DF938B017D
:100C400064E070E0A8010E94FC030E94880180E338
:100C500092E00E943909882309F496C0C80165E52D
:100C600074E049E554E00E94CB09882309F48CC064
:100C70004091550450915604609157047091580466
:100C800080E392E021E00E941602882309F07CC0F4
:100C90008091590490915A04A0915B04B0915C0436
:100CA00081509240A040B04060F080E092E0A0E02F
:100CB000B0E08093590490935A04A0935B04B093DE
:100CC0005C0450E3C52E52E0D52EEE24FF248701AC
:100CD00019C087EF94E00E94350D8823D1F387EF88
:100CE00094E00E94490D909323028093220208947D
:100CF000E11CF11C011D111D8E32910589F0F601D8
:100D000081936F01E7018091590490915A04A09159
:100D10005B04B0915C04E816F9060A071B07C8F2E9
:100D20002091590430915A0440915B0450915C0425
:100D3000CE01AA2797FDA095BA2FFE01E05DFD4FD9
:100D400063E004C061930196A11DB11D8217930752
:100D5000A407B507B8F300E010E0409155045091A6
:100D60005604609157047091580480E392E021E0AA
:100D70000E948502882341F40F5F1F4F0A3011053E
:100D800061F720E030E002C021E030E0C901DF91EE
:100D9000CF911F910F91FF90EF90DF90CF9008952A
:100DA0006F927F928F929F92AF92BF92CF92DF927B
:100DB000EF92FF920F931F93CF93DF938B0162E02B
:100DC00070E0A8010E94FC030E94880180E392E089
:100DD0000E943909882309F4A5C0C80165E574E0BB
:100DE00049E554E00E94CB09882309F49BC0809117
:100DF000590490915A04A0915B04B0915C04813035
:100E000022E0920720E0A20720E0B207D8F079E0C4
:100E1000B695A795979587957A95D1F780935104C4
:100E200090935204A0935304B093540480E092E052
:100E3000A0E0B0E08093590490935A04A0935B041F
:100E4000B0935C04AA24BB246501612C62E0762E79
:100E5000812C912C52C040915504509156046091C0
:100E60005704709158044A0D5B1D6C1D7D1D80E375
:100E700092E021E00E941602882309F053C080917D
:100E8000590490915A04A0915B04B0915C04815084
:100E90009240A040B04040F06092590470925A04D1
:100EA00080925B0490925C04C0E3D2E0EE24FF24C5
:100EB000870111C049910894E11CF11C011D111D0D
:100EC000433049F150E060E070E087EF94E020E0CB
:100ED00030E00E94E20E8091590490915A04A09152
:100EE0005B04B0915C04E816F9060A071B0710F3CF
:100EF0000894A11CB11CC11CD11C8091510490917B
:100F00005204A0915304B09154048A159B05AC057A
:100F1000BD0508F0A0CF87EF94E00E94FD0D20E012
:100F200030E002C021E030E0C901DF91CF911F9194
:100F30000F91FF90EF90DF90CF90BF90AF909F9078
:100F40008F907F906F900895DF92EF92FF920F93B2
:100F50001F93CF93DF93EB0161E070E0AE010E943D
:100F6000FC030E94880180E392E00E9439098823F3
:100F700009F46BC0CE0165E574E049E554E00E94D8
:100F8000CB09882309F461C08091590490915A04D7
:100F9000A0915B04B0915C04F9E0B695A795979594
:100FA0008795FA95D1F78093510490935204A093BA
:100FB0005304B0935404EE24FF248701E3E0DE2EB3
:100FC00033C040915504509156046091570470917C
:100FD00058044E0D5F1D601F711F80E392E021E0F9
:100FE0000E941602882389F5D0923002C0E0D0E03A
:100FF00040915504509156046091570470915804E3
:101000004E0D5F1D601F711F80E392E021E00E9482
:1010100085028823D1F42196CA30D10549F7089476
:10102000E11CF11C011D111D80915104909152048D
:10103000A0915304B09154048E159F05A007B107E9
:1010400008F0BFCF20E030E002C021E030E0C9016D
:10105000DF91CF911F910F91FF90EF90DF90089556
:101060002F923F924F925F926F927F928F929F92B8
:10107000AF92BF92CF92DF92EF92FF920F931F93A6
:101080007C018B010E94880180E392E00E94390973
:10109000882309F4DAC0C70160E070E0A8010E946B
:1010A000FC03C80165E574E049E554E00E94CB0902
:1010B000882309F4CAC087EF94E06CE771E00E94CE
:1010C000140E4091590450915A0460915B04709140
:1010D0005C0487EF94E00E94B70E87EF94E060E92C
:1010E00071E00E94F50D8091590490915A04A091ED
:1010F0005B04B0915C0481509240A040B04060F02D
:1011000080E092E0A0E0B0E08093590490935A040C
:10111000A0935B04B0935C044091590450915A042D
:1011200060915B0470915C04B9E076956795579582
:101130004795BA95D1F74093510450935204609368
:1011400053047093540487EF94E00E94B70E87EF26
:1011500094E063E971E00E94F50DAA24BB246501C7
:10116000EE24FF248701212CA2E03A2E412C512CA1
:101170005BC04091550450915604609157047091A2
:1011800058044E0D5F1D601F711F80E392E021E047
:101190000E941602882309F058C08091590490914A
:1011A0005A04A0915B04B0915C0481509240A0402D
:1011B000B04040F02092590430925A0440925B04AF
:1011C00050925C046090590470905A0480905B04C3
:1011D00090905C04E0E3F2E020E030E040E050E09A
:1011E00019C081912F5F3F4F4F4F5F4F833069F49C
:1011F00087EF94E0B601A5010E94BB0E87EF94E053
:1012000065E971E00E94140E1DC00894A11CB11C78
:10121000C11CD11C261537054805590510F3089443
:10122000E11CF11C011D111D80915104909152048B
:10123000A0915304B09154048E159F05A007B107E7
:1012400008F097CF20E030E002C021E030E0C90193
:101250001F910F91FF90EF90DF90CF90BF90AF90D4
:101260009F908F907F906F905F904F903F902F90C6
:101270000895AF92BF92CF92DF92EF92FF920F93B9
:101280001F93909368048093670440E050E060E00F
:1012900070E021E00E941602882309F072C0E091FC
:1012A0006704F0916804E254FE4FA084B184C284C4
:1012B000D384EE5BF140CF01B601A50121E00E948D
:1012C0001602882309F05DC0E0916704F09168047C
:1012D000838594858050924009F053C08585809322
:1012E0005D0410925E04868597857C0100E010E025
:1012F000EA0CFB1C0C1D1D1D808990E02689378996
:10130000AC01429FC001439F900D529F900D11244C
:10131000A0E0B0E0E80EF91E0A1F1B1FE0925F0478
:10132000F0926004009361041093620481899289B1
:1013300075E0880F991F7A95E1F7A0E0B0E09C0175
:10134000AD0169E055954795379527956A95D1F791
:101350009170A070B0700097A105B10521F02F5FCA
:101360003F4F4F4F5F4F2E0D3F1D401F511F20938A
:10137000630430936404409365045093660481E0F1
:1013800001C080E01F910F91FF90EF90DF90CF9010
:10139000BF90AF9008958F929F92AF92BF92CF92DD
:1013A000DF92EF92FF920F931F93DF93CF93CDB70E
:1013B000DEB72B970FB6F894DEBF0FBECDBF8C0102
:1013C0005B014A0140915F045091600460916104A7
:1013D00070916204809167049091680421E00E94FA
:1013E0001602882309F07AC0FE01319620E2CE0170
:1013F0000D962193E817F907E1F721C08E3219F411
:1014000028E030E009C080360CF08052FB01E20F8A
:10141000F31F80832F5F3F4F4F5F5F4F4C3051056D
:10142000A9F40091670410916804E12CE2E0FE2E1B
:10143000E00EF11E6E010894C11CD11C4BC040E0AF
:1014400050E020E030E0BE016F5F7F4FF801E40F15
:10145000F51F8081882391F6E4CFF80183858E7192
:10146000B9F5C601B8014BE050E00E94800F00972B
:1014700079F5F801828D938D029720915D0430916A
:101480005E04AC01429FC001439F900D529F900D9E
:101490001124A0E0B0E020916304309164044091F5
:1014A000650450916604820F931FA41FB51FF501B8
:1014B00080839183A283B383F801848D958DA68D5B
:1014C000B78DF40180839183A283B38381E007C049
:1014D000005E1F4F0E151F0509F0BFCF80E02B9651
:1014E0000FB6F894DEBF0FBECDBFCF91DF911F9135
:1014F0000F91FF90EF90DF90CF90BF90AF909F90B3
:101500008F90089587EF94E00E94350D882309F4A9
:101510006EC087EF94E00E94490D809369048C347B
:10152000D9F08D3440F48434E1F1883461F08134B1
:1015300009F05AC026C08235B1F08735D9F0803520
:1015400009F052C025C087EF94E067E971E00E947E
:10155000140E83E090E033C080E594E069EF71E021
:101560000E94300824C080E594E069EF71E00E9499
:10157000D0061DC080E594E069EF71E00E94170677
:1015800016C080E594E069EF71E00E94D6050FC0B7
:1015900080E594E069EF71E042E052E00E94BA0514
:1015A00006C080E594E069EF71E00E94A4078130F5
:1015B000910529F480E594E067E070E010C0823086
:1015C000910539F480E594E068E070E041E152E093
:1015D00008C0892B61F480E594E066E070E049EF93
:1015E00051E00E94FC03089582E090E0E8CF089566
:1015F00088E061E00E94920B88E061E00E94B20BFB
:1016000087EF94E040E05BE460E070E00E943C0C17
:1016100008950E94580B0E94F80A0E94820AFDCF8A
:101620001F920F920FB60F9211242F933F938F9317
:101630009F93AF93BF9380916E0490916F04A0919C
:101640007004B0917104309172040196A11DB11D16
:10165000232F2D5F2D3720F02D570196A11DB11D91
:101660002093720480936E0490936F04A09370048F
:10167000B093710480916A0490916B04A0916C0402
:10168000B0916D040196A11DB11D80936A049093E1
:101690006B04A0936C04B0936D04BF91AF919F91C4
:1016A0008F913F912F910F900FBE0F901F90189523
:1016B000789484B5826084BD84B5816084BD85B52D
:1016C000826085BD85B5816085BDEEE6F0E08081F4
:1016D00081608083E1E8F0E08081826080838081A6
:1016E00081608083E0E8F0E0808181608083E1EBCD
:1016F000F0E0808184608083E0EBF0E080818160B5
:101700008083EAE7F0E0808184608083808182606A
:101710008083808181608083808180688083109253
:10172000C1000895282F30E0C90186569F4FFC0163
:1017300094912A573F4FF9018491882391F0E82F23
:10174000F0E0EE0FFF1FE859FF4FA591B49166231B
:1017500029F48C91909589238C9308958C91892BF1
:101760008C930895482F50E0CA0182559F4FFC0189
:101770002491CA0186569F4FFC0194914A575F4FAE
:10178000FA0134913323D1F1222331F1233021F4B2
:10179000809180008F7705C0243031F480918000E3
:1017A0008F7D8093800018C0213019F484B58F7725
:1017B00004C0223021F484B58F7D84BD0DC0263055
:1017C00021F48091B0008F7705C0273029F48091F3
:1017D000B0008F7D8093B000E32FF0E0EE0FFF1F8D
:1017E000EE58FF4FA591B491662329F48C91909502
:1017F00089238C9308958C91892B8C9308951F9243
:101800000F920FB60F9211242F933F934F935F9334
:101810006F937F938F939F93AF93BF93EF93FF93B8
:101820004091C600E091F304F091F404CF010196D9
:1018300060E870E00E94160F9C018091F504909181
:10184000F6042817390739F0ED58FB4F40833093E1
:10185000F4042093F304FF91EF91BF91AF919F9116
:101860008F917F916F915F914F913F912F910F9049
:101870000FBE0F901F9018955F926F927F928F927C
:101880009F92AF92BF92CF92DF92EF92FF920F930F
:101890001F93CF93DF93EC013A014B01413482E473
:1018A00058078FE0680780E078070CF07FC060E899
:1018B00074E88EE190E0A40193010E944B0F215047
:1018C000304040405040CA01B90122E030E040E0E1
:1018D00050E00E944B0F59016A01A6019501209525
:1018E00030954095509594E0220F331F441F551FAB
:1018F0009A95D1F760E074E284EF90E00E944B0F7C
:10190000CA01B9012FEF30E040E050E00E94F70E2D
:10191000A40193010E944B0FC90181509F4F1816DB
:1019200019061CF4522E5A9403C055245394521A8B
:1019300060E079E08DE390E0A40193010E944B0FF9
:101940002150304040405040CA01B90122E030E00F
:1019500040E050E00E944B0F209530954095509507
:1019600083E0220F331F441F551F8A95D1F760E093
:1019700074E284EF90E00E944B0FCA01B9012FEF8F
:1019800030E040E050E00E94F70EA40193010E9475
:101990004B0FC90181509F4F181619061CF4822F56
:1019A000815002C081E0821B851500F5E885F9852C
:1019B00081E090E00A8802C0880F991F0A94E2F73C
:1019C000808360E079E08DE390E0A40193010E94C0
:1019D0004B0F2150304040405040CA01B90122E035
:1019E00030E040E050E00E944B0F04C0E885F985EC
:1019F00010829501EC81FD813083EE81FF8120838F
:101A0000EA85FB85208141E050E0CA010E8402C0D6
:101A1000880F991F0A94E2F7282B2083EA85FB851B
:101A20002081CA010F8402C0880F991F0A94E2F72F
:101A3000282B2083EA85FB858081088802C0440F1B
:101A4000551F0A94E2F7842B8083DF91CF911F9179
:101A50000F91FF90EF90DF90CF90BF90AF909F904D
:101A60008F907F906F905F900895DC011296ED91BA
:101A7000FC911397E058FF4F8191919180589F4FAF
:101A800020813181821B930B60E870E00E94160F69
:101A90000895CF93DF93DC011296ED91FC9113979B
:101AA000EF01CE57DF4F48815981E058FF4F8081C9
:101AB0009181E058F0408417950719F42FEF3FEF1C
:101AC0000CC0E40FF51F2081CA01019660E870E0A8
:101AD0000E94160F9983888330E0C901DF91CF916E
:101AE0000895FC01A085B18521898C9190E0022E9A
:101AF00002C0959587950A94E2F780FFF6CF04849B
:101B0000F585E02D6083089588E292E09093F804D3
:101B10008093F70483E794E09093FA048093F904A8
:101B200085EC90E09093FC048093FB0484EC90E0BF
:101B30009093FE048093FD0480EC90E09093000568
:101B40008093FF0481EC90E090930205809301055F
:101B500086EC90E0909304058093030584E08093E5
:101B6000050583E08093060587E08093070585E0FF
:101B70008093080581E08093090508950F931F93D2
:101B8000CF93DF938C01EB0109C02196D801ED9131
:101B9000FC910190F081E02DC801099568816623D0
:101BA000A1F7DF91CF911F910F910895EF92FF92CE
:101BB0000F931F93CF93DF938C017B01EA010CC03D
:101BC000D7016D917D01D801ED91FC910190F081DB
:101BD000E02DC80109952197209791F7DF91CF91CA
:101BE0001F910F91FF90EF900895DC01ED91FC9112
:101BF0000280F381E02D099508950F931F938C01C6
:101C0000DC01ED91FC910190F081E02D6DE00995F2
:101C1000D801ED91FC910190F081E02DC8016AE0BE
:101C200009951F910F9108950F931F938C010E94A6
:101C3000F50DC8010E94FD0D1F910F9108952F927F
:101C40003F924F925F926F927F928F929F92AF924C
:101C5000BF92CF92DF92EF92FF920F931F93DF9389
:101C6000CF93CDB7DEB7A0970FB6F894DEBF0FBE07
:101C7000CDBF1C016A017B0141155105610571054C
:101C800049F4DC01ED91FC910190F081E02D60E3DD
:101C9000099554C0882499245401422E5524662461
:101CA000772401E010E00C0F1D1F080D191DC7015E
:101CB000B601A30192010E94290FF80160830894E4
:101CC000811C911CA11CB11CC701B601A30192018A
:101CD0000E94290FC901DA016C017D01C114D104F0
:101CE000E104F104F1F681E0E82EF12CEC0EFD1E8A
:101CF000E80CF91C3E010894611C711CD501C4015B
:101D00000197A109B1096C01C818D90814C0F601DE
:101D1000EE0DFF1D60816A3010F4605D01C0695CEA
:101D2000D101ED91FC910190F081E02DC101099567
:101D30000894E108F1086E147F0449F7A0960FB6E5
:101D4000F894DEBF0FBECDBFCF91DF911F910F91F1
:101D5000FF90EF90DF90CF90BF90AF909F908F90CB
:101D60007F906F905F904F903F902F9008952AE062
:101D70000E941F0E0895EF92FF920F931F93CF932F
:101D8000DF93EC017A018B0177FF0FC0E881F981C5
:101D90000190F081E02D6DE2099510950095F09489
:101DA000E094E11CF11C011D111DCE01B801A70139
:101DB0002AE00E941F0EDF91CF911F910F91FF909B
:101DC000EF900895DC012115310541F4ED91FC916E
:101DD0000190F081E02D642F099508952A30310596
:101DE00019F40E94BB0E08950E941F0E0895629F71
:101DF000D001739FF001829FE00DF11D649FE00D03
:101E0000F11D929FF00D839FF00D749FF00D659F63
:101E1000F00D9927729FB00DE11DF91F639FB00D62
:101E2000E11DF91FBD01CF011124089597FB092E73
:101E300007260AD077FD04D049D006D000201AF436
:101E4000709561957F4F0895F6F7909581959F4F16
:101E50000895A1E21A2EAA1BBB1BFD010DC0AA1FEB
:101E6000BB1FEE1FFF1FA217B307E407F50720F003
:101E7000A21BB30BE40BF50B661F771F881F991F7E
:101E80001A9469F760957095809590959B01AC01C7
:101E9000BD01CF01089597FB092E05260ED057FDF1
:101EA00004D0D7DF0AD0001C38F450954095309507
:101EB00021953F4F4F4F5F4F0895F6F790958095CE
:101EC000709561957F4F8F4F9F4F0895AA1BBB1B45
:101ED00051E107C0AA1FBB1FA617B70710F0A61B2A
:101EE000B70B881F991F5A95A9F780959095BC014B
:101EF000CD010895EE0FFF1F0590F491E02D099498
:101F0000FB01DC0104C08D910190801921F4415046
:0E1F10005040C8F7881B990B0895F894FFCF36
:101F1E005B005D202D200066696C6520696E666F22
:101F2E0000646574696E672066696C650066696C2D
:101F3E006520636F6E74656E7400616464207374E3
:101F4E0072696E6700696E69742066696C652C2013
:101F5E0074797065207465787400616464207465AA
:101F6E007874002E2E646F6E650A002E2E657272C6
:101F7E006F72210A002E2E7761726E696E67210ACA
:101F8E00000A00686F6C612E747874006C656E6761
:101F9E00746809736563746F727309757365640091
:101FAE0042090009004200482068656C700A4C2006
:101FBE0066696C6520696E666F0A442064656C659F
:101FCE0074650A5020617070656E64207374726956
:101FDE006E670A5720696E69742066696C652061A8
:101FEE006E642077726974650A522064756D702074
:101FFE00746F2073657269616C0A4120617070653F
:10200E006E6420746578740A00686F6C612E747843
:10201E0074000A686F6C612063617261636F6C613A
:10202E0000756E6B6E6F776E20636F6D6D616E6493
:0E203E000001FFFF00000000710DBE0DD60D69
:00000001FF
